{
  "_format": "hh-sol-artifact-1",
  "contractName": "EGGSPUDGY",
  "sourceName": "contracts/EGGSPUDGY.sol",
  "abi": [
    {
      "inputs": [
        {
          "internalType": "string",
          "name": "_baseURI",
          "type": "string"
        },
        {
          "internalType": "string",
          "name": "_notRevealedURI",
          "type": "string"
        },
        {
          "internalType": "address",
          "name": "_team",
          "type": "address"
        }
      ],
      "stateMutability": "nonpayable",
      "type": "constructor"
    },
    {
      "inputs": [],
      "name": "ApprovalCallerNotOwnerNorApproved",
      "type": "error"
    },
    {
      "inputs": [],
      "name": "ApprovalQueryForNonexistentToken",
      "type": "error"
    },
    {
      "inputs": [],
      "name": "BalanceQueryForZeroAddress",
      "type": "error"
    },
    {
      "inputs": [],
      "name": "MintERC2309QuantityExceedsLimit",
      "type": "error"
    },
    {
      "inputs": [],
      "name": "MintToZeroAddress",
      "type": "error"
    },
    {
      "inputs": [],
      "name": "MintZeroQuantity",
      "type": "error"
    },
    {
      "inputs": [],
      "name": "OwnerQueryForNonexistentToken",
      "type": "error"
    },
    {
      "inputs": [],
      "name": "OwnershipNotInitializedForExtraData",
      "type": "error"
    },
    {
      "inputs": [],
      "name": "TransferCallerNotOwnerNorApproved",
      "type": "error"
    },
    {
      "inputs": [],
      "name": "TransferFromIncorrectOwner",
      "type": "error"
    },
    {
      "inputs": [],
      "name": "TransferToNonERC721ReceiverImplementer",
      "type": "error"
    },
    {
      "inputs": [],
      "name": "TransferToZeroAddress",
      "type": "error"
    },
    {
      "inputs": [],
      "name": "URIQueryForNonexistentToken",
      "type": "error"
    },
    {
      "anonymous": false,
      "inputs": [
        {
          "indexed": true,
          "internalType": "address",
          "name": "owner",
          "type": "address"
        },
        {
          "indexed": true,
          "internalType": "address",
          "name": "approved",
          "type": "address"
        },
        {
          "indexed": true,
          "internalType": "uint256",
          "name": "tokenId",
          "type": "uint256"
        }
      ],
      "name": "Approval",
      "type": "event"
    },
    {
      "anonymous": false,
      "inputs": [
        {
          "indexed": true,
          "internalType": "address",
          "name": "owner",
          "type": "address"
        },
        {
          "indexed": true,
          "internalType": "address",
          "name": "operator",
          "type": "address"
        },
        {
          "indexed": false,
          "internalType": "bool",
          "name": "approved",
          "type": "bool"
        }
      ],
      "name": "ApprovalForAll",
      "type": "event"
    },
    {
      "anonymous": false,
      "inputs": [
        {
          "indexed": true,
          "internalType": "uint256",
          "name": "fromTokenId",
          "type": "uint256"
        },
        {
          "indexed": false,
          "internalType": "uint256",
          "name": "toTokenId",
          "type": "uint256"
        },
        {
          "indexed": true,
          "internalType": "address",
          "name": "from",
          "type": "address"
        },
        {
          "indexed": true,
          "internalType": "address",
          "name": "to",
          "type": "address"
        }
      ],
      "name": "ConsecutiveTransfer",
      "type": "event"
    },
    {
      "anonymous": false,
      "inputs": [
        {
          "indexed": true,
          "internalType": "address",
          "name": "previousOwner",
          "type": "address"
        },
        {
          "indexed": true,
          "internalType": "address",
          "name": "newOwner",
          "type": "address"
        }
      ],
      "name": "OwnershipTransferred",
      "type": "event"
    },
    {
      "anonymous": false,
      "inputs": [
        {
          "indexed": true,
          "internalType": "address",
          "name": "from",
          "type": "address"
        },
        {
          "indexed": true,
          "internalType": "address",
          "name": "to",
          "type": "address"
        },
        {
          "indexed": true,
          "internalType": "uint256",
          "name": "tokenId",
          "type": "uint256"
        }
      ],
      "name": "Transfer",
      "type": "event"
    },
    {
      "inputs": [
        {
          "internalType": "address",
          "name": "_account",
          "type": "address"
        },
        {
          "internalType": "uint256",
          "name": "_quantity",
          "type": "uint256"
        }
      ],
      "name": "Mint",
      "outputs": [],
      "stateMutability": "payable",
      "type": "function"
    },
    {
      "inputs": [],
      "name": "Price",
      "outputs": [
        {
          "internalType": "uint256",
          "name": "",
          "type": "uint256"
        }
      ],
      "stateMutability": "view",
      "type": "function"
    },
    {
      "inputs": [
        {
          "internalType": "address",
          "name": "to",
          "type": "address"
        },
        {
          "internalType": "uint256",
          "name": "tokenId",
          "type": "uint256"
        }
      ],
      "name": "approve",
      "outputs": [],
      "stateMutability": "nonpayable",
      "type": "function"
    },
    {
      "inputs": [
        {
          "internalType": "address",
          "name": "owner",
          "type": "address"
        }
      ],
      "name": "balanceOf",
      "outputs": [
        {
          "internalType": "uint256",
          "name": "",
          "type": "uint256"
        }
      ],
      "stateMutability": "view",
      "type": "function"
    },
    {
      "inputs": [],
      "name": "baseURI",
      "outputs": [
        {
          "internalType": "string",
          "name": "",
          "type": "string"
        }
      ],
      "stateMutability": "view",
      "type": "function"
    },
    {
      "inputs": [
        {
          "internalType": "uint256",
          "name": "tokenId",
          "type": "uint256"
        }
      ],
      "name": "getApproved",
      "outputs": [
        {
          "internalType": "address",
          "name": "",
          "type": "address"
        }
      ],
      "stateMutability": "view",
      "type": "function"
    },
    {
      "inputs": [
        {
          "internalType": "address",
          "name": "_to",
          "type": "address"
        },
        {
          "internalType": "uint256",
          "name": "_quantity",
          "type": "uint256"
        }
      ],
      "name": "gift",
      "outputs": [],
      "stateMutability": "nonpayable",
      "type": "function"
    },
    {
      "inputs": [
        {
          "internalType": "address",
          "name": "owner",
          "type": "address"
        },
        {
          "internalType": "address",
          "name": "operator",
          "type": "address"
        }
      ],
      "name": "isApprovedForAll",
      "outputs": [
        {
          "internalType": "bool",
          "name": "",
          "type": "bool"
        }
      ],
      "stateMutability": "view",
      "type": "function"
    },
    {
      "inputs": [],
      "name": "name",
      "outputs": [
        {
          "internalType": "string",
          "name": "",
          "type": "string"
        }
      ],
      "stateMutability": "view",
      "type": "function"
    },
    {
      "inputs": [],
      "name": "notRevealedURI",
      "outputs": [
        {
          "internalType": "string",
          "name": "",
          "type": "string"
        }
      ],
      "stateMutability": "view",
      "type": "function"
    },
    {
      "inputs": [],
      "name": "owner",
      "outputs": [
        {
          "internalType": "address",
          "name": "",
          "type": "address"
        }
      ],
      "stateMutability": "view",
      "type": "function"
    },
    {
      "inputs": [
        {
          "internalType": "uint256",
          "name": "tokenId",
          "type": "uint256"
        }
      ],
      "name": "ownerOf",
      "outputs": [
        {
          "internalType": "address",
          "name": "",
          "type": "address"
        }
      ],
      "stateMutability": "view",
      "type": "function"
    },
    {
      "inputs": [],
      "name": "renounceOwnership",
      "outputs": [],
      "stateMutability": "nonpayable",
      "type": "function"
    },
    {
      "inputs": [],
      "name": "reveal",
      "outputs": [],
      "stateMutability": "nonpayable",
      "type": "function"
    },
    {
      "inputs": [],
      "name": "revealed",
      "outputs": [
        {
          "internalType": "bool",
          "name": "",
          "type": "bool"
        }
      ],
      "stateMutability": "view",
      "type": "function"
    },
    {
      "inputs": [
        {
          "internalType": "address",
          "name": "from",
          "type": "address"
        },
        {
          "internalType": "address",
          "name": "to",
          "type": "address"
        },
        {
          "internalType": "uint256",
          "name": "tokenId",
          "type": "uint256"
        }
      ],
      "name": "safeTransferFrom",
      "outputs": [],
      "stateMutability": "nonpayable",
      "type": "function"
    },
    {
      "inputs": [
        {
          "internalType": "address",
          "name": "from",
          "type": "address"
        },
        {
          "internalType": "address",
          "name": "to",
          "type": "address"
        },
        {
          "internalType": "uint256",
          "name": "tokenId",
          "type": "uint256"
        },
        {
          "internalType": "bytes",
          "name": "_data",
          "type": "bytes"
        }
      ],
      "name": "safeTransferFrom",
      "outputs": [],
      "stateMutability": "nonpayable",
      "type": "function"
    },
    {
      "inputs": [],
      "name": "sellingStep",
      "outputs": [
        {
          "internalType": "enum EGGSPUDGY.Steps",
          "name": "",
          "type": "uint8"
        }
      ],
      "stateMutability": "view",
      "type": "function"
    },
    {
      "inputs": [
        {
          "internalType": "address",
          "name": "operator",
          "type": "address"
        },
        {
          "internalType": "bool",
          "name": "approved",
          "type": "bool"
        }
      ],
      "name": "setApprovalForAll",
      "outputs": [],
      "stateMutability": "nonpayable",
      "type": "function"
    },
    {
      "inputs": [
        {
          "internalType": "string",
          "name": "_baseURI",
          "type": "string"
        }
      ],
      "name": "setBaseUri",
      "outputs": [],
      "stateMutability": "nonpayable",
      "type": "function"
    },
    {
      "inputs": [
        {
          "internalType": "uint256",
          "name": "_step",
          "type": "uint256"
        }
      ],
      "name": "setStep",
      "outputs": [],
      "stateMutability": "nonpayable",
      "type": "function"
    },
    {
      "inputs": [
        {
          "internalType": "bytes4",
          "name": "interfaceId",
          "type": "bytes4"
        }
      ],
      "name": "supportsInterface",
      "outputs": [
        {
          "internalType": "bool",
          "name": "",
          "type": "bool"
        }
      ],
      "stateMutability": "view",
      "type": "function"
    },
    {
      "inputs": [],
      "name": "symbol",
      "outputs": [
        {
          "internalType": "string",
          "name": "",
          "type": "string"
        }
      ],
      "stateMutability": "view",
      "type": "function"
    },
    {
      "inputs": [
        {
          "internalType": "uint256",
          "name": "_nftId",
          "type": "uint256"
        }
      ],
      "name": "tokenURI",
      "outputs": [
        {
          "internalType": "string",
          "name": "",
          "type": "string"
        }
      ],
      "stateMutability": "view",
      "type": "function"
    },
    {
      "inputs": [],
      "name": "totalSupply",
      "outputs": [
        {
          "internalType": "uint256",
          "name": "",
          "type": "uint256"
        }
      ],
      "stateMutability": "view",
      "type": "function"
    },
    {
      "inputs": [
        {
          "internalType": "address",
          "name": "from",
          "type": "address"
        },
        {
          "internalType": "address",
          "name": "to",
          "type": "address"
        },
        {
          "internalType": "uint256",
          "name": "tokenId",
          "type": "uint256"
        }
      ],
      "name": "transferFrom",
      "outputs": [],
      "stateMutability": "nonpayable",
      "type": "function"
    },
    {
      "inputs": [
        {
          "internalType": "address",
          "name": "newOwner",
          "type": "address"
        }
      ],
      "name": "transferOwnership",
      "outputs": [],
      "stateMutability": "nonpayable",
      "type": "function"
    },
    {
      "inputs": [],
      "name": "withdraw",
      "outputs": [],
      "stateMutability": "nonpayable",
      "type": "function"
    }
  ],
  "bytecode": "0x6080604052600b805460ff19169055660aa87bee538000600c553480156200002657600080fd5b5060405162001f0838038062001f0883398101604081905262000049916200024a565b6040518060400160405280601681526020017f456767732062792050756467792050656e6775696e73000000000000000000008152506040518060400160405280600981526020016845474753505544475960b81b815250620000bb620000b56200013160201b60201c565b62000135565b6003620000c9838262000366565b506004620000d8828262000366565b505060018055506009620000ed848262000366565b50600a620000fc838262000366565b50600b805461ff0019169055600d80546001600160a01b0319166001600160a01b039290921691909117905550620004329050565b3390565b600080546001600160a01b038381166001600160a01b0319831681178455604051919092169283917f8be0079c531659141344cd1fd0a4f28419497f9722a3daafe3b4186f6b6457e09190a35050565b634e487b7160e01b600052604160045260246000fd5b600082601f830112620001ad57600080fd5b81516001600160401b0380821115620001ca57620001ca62000185565b604051601f8301601f19908116603f01168101908282118183101715620001f557620001f562000185565b816040528381526020925086838588010111156200021257600080fd5b600091505b8382101562000236578582018301518183018401529082019062000217565b600093810190920192909252949350505050565b6000806000606084860312156200026057600080fd5b83516001600160401b03808211156200027857600080fd5b62000286878388016200019b565b945060208601519150808211156200029d57600080fd5b50620002ac868287016200019b565b604086015190935090506001600160a01b0381168114620002cc57600080fd5b809150509250925092565b600181811c90821680620002ec57607f821691505b6020821081036200030d57634e487b7160e01b600052602260045260246000fd5b50919050565b601f8211156200036157600081815260208120601f850160051c810160208610156200033c5750805b601f850160051c820191505b818110156200035d5782815560010162000348565b5050505b505050565b81516001600160401b0381111562000382576200038262000185565b6200039a81620003938454620002d7565b8462000313565b602080601f831160018114620003d25760008415620003b95750858301515b600019600386901b1c1916600185901b1785556200035d565b600085815260208120601f198616915b828110156200040357888601518255948401946001909101908401620003e2565b5085821015620004225787850151600019600388901b60f8161c191681555b5050505050600190811b01905550565b611ac680620004426000396000f3fe6080604052600436106101b75760003560e01c806372250380116100ec578063b88d4fde1161008a578063cbce4c9711610064578063cbce4c97146104a4578063e985e9c5146104c4578063f2fde38b146104e4578063f8dcbddb1461050457600080fd5b8063b88d4fde14610438578063c87b56dd14610458578063cbccefb21461047857600080fd5b80639dfde201116100c65780639dfde201146103cd578063a0bcfc7f146103e3578063a22cb46514610403578063a475b5dd1461042357600080fd5b806372250380146103855780638da5cb5b1461039a57806395d89b41146103b857600080fd5b80633ccfd60b116101595780636352211e116101335780636352211e1461031b5780636c0360eb1461033b57806370a0823114610350578063715018a61461037057600080fd5b80633ccfd60b146102cc57806342842e0e146102e1578063518302271461030157600080fd5b8063095ea7b311610195578063095ea7b31461024b5780630f6798a51461026d57806318160ddd1461028057806323b872dd146102ac57600080fd5b806301ffc9a7146101bc57806306fdde03146101f1578063081812fc14610213575b600080fd5b3480156101c857600080fd5b506101dc6101d7366004611543565b610524565b60405190151581526020015b60405180910390f35b3480156101fd57600080fd5b50610206610576565b6040516101e891906115b0565b34801561021f57600080fd5b5061023361022e3660046115c3565b610608565b6040516001600160a01b0390911681526020016101e8565b34801561025757600080fd5b5061026b6102663660046115f8565b61064c565b005b61026b61027b3660046115f8565b6106ec565b34801561028c57600080fd5b5061029e600254600154036000190190565b6040519081526020016101e8565b3480156102b857600080fd5b5061026b6102c7366004611622565b61095d565b3480156102d857600080fd5b5061026b610af6565b3480156102ed57600080fd5b5061026b6102fc366004611622565b610b32565b34801561030d57600080fd5b50600b546101dc9060ff1681565b34801561032757600080fd5b506102336103363660046115c3565b610b4d565b34801561034757600080fd5b50610206610b58565b34801561035c57600080fd5b5061029e61036b36600461165e565b610be6565b34801561037c57600080fd5b5061026b610c35565b34801561039157600080fd5b50610206610c49565b3480156103a657600080fd5b506000546001600160a01b0316610233565b3480156103c457600080fd5b50610206610c56565b3480156103d957600080fd5b5061029e600c5481565b3480156103ef57600080fd5b5061026b6103fe366004611705565b610c65565b34801561040f57600080fd5b5061026b61041e36600461174e565b610c7d565b34801561042f57600080fd5b5061026b610ce9565b34801561044457600080fd5b5061026b61045336600461178a565b610d00565b34801561046457600080fd5b506102066104733660046115c3565b610d4a565b34801561048457600080fd5b50600b5461049790610100900460ff1681565b6040516101e8919061181c565b3480156104b057600080fd5b5061026b6104bf3660046115f8565b610eab565b3480156104d057600080fd5b506101dc6104df366004611844565b610f1f565b3480156104f057600080fd5b5061026b6104ff36600461165e565b610f4d565b34801561051057600080fd5b5061026b61051f3660046115c3565b610fc3565b60006301ffc9a760e01b6001600160e01b03198316148061055557506380ac58cd60e01b6001600160e01b03198316145b806105705750635b5e139f60e01b6001600160e01b03198316145b92915050565b60606003805461058590611877565b80601f01602080910402602001604051908101604052809291908181526020018280546105b190611877565b80156105fe5780601f106105d3576101008083540402835291602001916105fe565b820191906000526020600020905b8154815290600101906020018083116105e157829003601f168201915b5050505050905090565b600061061382611003565b610630576040516333d1c03960e21b815260040160405180910390fd5b506000908152600760205260409020546001600160a01b031690565b600061065782610b4d565b9050336001600160a01b03821614610690576106738133610f1f565b610690576040516367d9dca160e11b815260040160405180910390fd5b60008281526007602052604080822080546001600160a01b0319166001600160a01b0387811691821790925591518593918516917f8c5be1e5ebec7d5bd14f71427d1e84f3dd0314c0f7b2291e5b200ac8c7c3b92591a4505050565b3233146107405760405162461bcd60e51b815260206004820152601e60248201527f5468652063616c6c657220697320616e6f7468657220636f6e7472616374000060448201526064015b60405180910390fd5b600c5460008190036107815760405162461bcd60e51b815260206004820152600a6024820152690507269636520697320360b41b6044820152606401610737565b6001600b54610100900460ff16600381111561079f5761079f611806565b146107e45760405162461bcd60e51b815260206004820152601560248201527414d85b19481a5cc81b9bdd081858dd1a5d985d1959605a1b6044820152606401610737565b336000908152600e60205260409020546019906108029084906118c7565b11156108505760405162461bcd60e51b815260206004820152601760248201527f596f752063616e206f6e6c7920676574203235204e46540000000000000000006044820152606401610737565b6122b882610865600254600154036000190190565b61086f91906118c7565b11156108b35760405162461bcd60e51b815260206004820152601360248201527213585e081cdd5c1c1b1e48195e18d959591959606a1b6044820152606401610737565b6108bd82826118da565b3410156109005760405162461bcd60e51b81526020600482015260116024820152704e6f7420656e6f756768742066756e647360781b6044820152606401610737565b336000908152600e60205260408120805484929061091f9084906118c7565b909155506122b89050610939600254600154036000190190565b0361094e57600b805461ff0019166102001790555b6109588383611038565b505050565b600061096882611052565b9050836001600160a01b0316816001600160a01b03161461099b5760405162a1148160e81b815260040160405180910390fd5b60008281526007602052604090208054338082146001600160a01b038816909114176109e8576109cb8633610f1f565b6109e857604051632ce44b5f60e11b815260040160405180910390fd5b6001600160a01b038516610a0f57604051633a954ecd60e21b815260040160405180910390fd5b8015610a1a57600082555b6001600160a01b038681166000908152600660205260408082208054600019019055918716808252919020805460010190554260a01b17600160e11b17600085815260056020526040812091909155600160e11b84169003610aac57600184016000818152600560205260408120549003610aaa576001548114610aaa5760008181526005602052604090208490555b505b83856001600160a01b0316876001600160a01b03167fddf252ad1be2c89b69c2b068fc378daa952ba7f163c4a11628f55a4df523b3ef60405160405180910390a45b505050505050565b600d546040516001600160a01b03909116904780156108fc02916000818181858888f19350505050158015610b2f573d6000803e3d6000fd5b50565b61095883838360405180602001604052806000815250610d00565b600061057082611052565b60098054610b6590611877565b80601f0160208091040260200160405190810160405280929190818152602001828054610b9190611877565b8015610bde5780601f10610bb357610100808354040283529160200191610bde565b820191906000526020600020905b815481529060010190602001808311610bc157829003601f168201915b505050505081565b60006001600160a01b038216610c0f576040516323d3ad8160e21b815260040160405180910390fd5b506001600160a01b031660009081526006602052604090205467ffffffffffffffff1690565b610c3d6110c1565b610c47600061111b565b565b600a8054610b6590611877565b60606004805461058590611877565b610c6d6110c1565b6009610c798282611937565b5050565b3360008181526008602090815260408083206001600160a01b03871680855290835292819020805460ff191686151590811790915590519081529192917f17307eab39ab6107e8899845ad3d59bd9653f200f220920489ca2b5937696c31910160405180910390a35050565b610cf16110c1565b600b805460ff19166001179055565b610d0b84848461095d565b6001600160a01b0383163b15610d4457610d278484848461116b565b610d44576040516368d2bf6b60e11b815260040160405180910390fd5b50505050565b6060610d5582611003565b610da15760405162461bcd60e51b815260206004820152601760248201527f54686973204e465420646f65736e27742065786973742e0000000000000000006044820152606401610737565b600b5460ff161515600003610e4257600a8054610dbd90611877565b80601f0160208091040260200160405190810160405280929190818152602001828054610de990611877565b8015610e365780601f10610e0b57610100808354040283529160200191610e36565b820191906000526020600020905b815481529060010190602001808311610e1957829003601f168201915b50505050509050919050565b6000610e5960408051602081019091526000815290565b90506000815111610e795760405180602001604052806000815250610ea4565b80610e8384611257565b604051602001610e949291906119f7565b6040516020818303038152906040525b9392505050565b610eb36110c1565b6122b881610ec8600254600154036000190190565b610ed291906118c7565b1115610f155760405162461bcd60e51b815260206004820152601260248201527152656163686564206d617820537570706c7960701b6044820152606401610737565b610c798282611038565b6001600160a01b03918216600090815260086020908152604080832093909416825291909152205460ff1690565b610f556110c1565b6001600160a01b038116610fba5760405162461bcd60e51b815260206004820152602660248201527f4f776e61626c653a206e6577206f776e657220697320746865207a65726f206160448201526564647265737360d01b6064820152608401610737565b610b2f8161111b565b610fcb6110c1565b806003811115610fdd57610fdd611806565b600b805461ff001916610100836003811115610ffb57610ffb611806565b021790555050565b600081600111158015611017575060015482105b8015610570575050600090815260056020526040902054600160e01b161590565b610c798282604051806020016040528060008152506112ea565b600081806001116110a8576001548110156110a85760008181526005602052604081205490600160e01b821690036110a6575b80600003610ea4575060001901600081815260056020526040902054611085565b505b604051636f96cda160e11b815260040160405180910390fd5b6000546001600160a01b03163314610c475760405162461bcd60e51b815260206004820181905260248201527f4f776e61626c653a2063616c6c6572206973206e6f7420746865206f776e65726044820152606401610737565b600080546001600160a01b038381166001600160a01b0319831681178455604051919092169283917f8be0079c531659141344cd1fd0a4f28419497f9722a3daafe3b4186f6b6457e09190a35050565b604051630a85bd0160e11b81526000906001600160a01b0385169063150b7a02906111a0903390899088908890600401611a36565b6020604051808303816000875af19250505080156111db575060408051601f3d908101601f191682019092526111d891810190611a73565b60015b611239573d808015611209576040519150601f19603f3d011682016040523d82523d6000602084013e61120e565b606091505b508051600003611231576040516368d2bf6b60e11b815260040160405180910390fd5b805181602001fd5b6001600160e01b031916630a85bd0160e11b1490505b949350505050565b6060600061126483611357565b600101905060008167ffffffffffffffff81111561128457611284611679565b6040519080825280601f01601f1916602001820160405280156112ae576020820181803683370190505b5090508181016020015b600019016f181899199a1a9b1b9c1cb0b131b232b360811b600a86061a8153600a85049450846112b857509392505050565b6112f4838361142f565b6001600160a01b0383163b15610958576001548281035b61131e600086838060010194508661116b565b61133b576040516368d2bf6b60e11b815260040160405180910390fd5b81811061130b57816001541461135057600080fd5b5050505050565b60008072184f03e93ff9f4daa797ed6e38ed64bf6a1f0160401b83106113965772184f03e93ff9f4daa797ed6e38ed64bf6a1f0160401b830492506040015b6d04ee2d6d415b85acef810000000083106113c2576d04ee2d6d415b85acef8100000000830492506020015b662386f26fc1000083106113e057662386f26fc10000830492506010015b6305f5e10083106113f8576305f5e100830492506008015b612710831061140c57612710830492506004015b6064831061141e576064830492506002015b600a83106105705760010192915050565b60015460008290036114545760405163b562e8dd60e01b815260040160405180910390fd5b6001600160a01b03831660008181526006602090815260408083208054680100000000000000018802019055848352600590915281206001851460e11b4260a01b178317905582840190839083907fddf252ad1be2c89b69c2b068fc378daa952ba7f163c4a11628f55a4df523b3ef8180a4600183015b81811461150357808360007fddf252ad1be2c89b69c2b068fc378daa952ba7f163c4a11628f55a4df523b3ef600080a46001016114cb565b508160000361152457604051622e076360e81b815260040160405180910390fd5b60015550505050565b6001600160e01b031981168114610b2f57600080fd5b60006020828403121561155557600080fd5b8135610ea48161152d565b60005b8381101561157b578181015183820152602001611563565b50506000910152565b6000815180845261159c816020860160208601611560565b601f01601f19169290920160200192915050565b602081526000610ea46020830184611584565b6000602082840312156115d557600080fd5b5035919050565b80356001600160a01b03811681146115f357600080fd5b919050565b6000806040838503121561160b57600080fd5b611614836115dc565b946020939093013593505050565b60008060006060848603121561163757600080fd5b611640846115dc565b925061164e602085016115dc565b9150604084013590509250925092565b60006020828403121561167057600080fd5b610ea4826115dc565b634e487b7160e01b600052604160045260246000fd5b600067ffffffffffffffff808411156116aa576116aa611679565b604051601f8501601f19908116603f011681019082821181831017156116d2576116d2611679565b816040528093508581528686860111156116eb57600080fd5b858560208301376000602087830101525050509392505050565b60006020828403121561171757600080fd5b813567ffffffffffffffff81111561172e57600080fd5b8201601f8101841361173f57600080fd5b61124f8482356020840161168f565b6000806040838503121561176157600080fd5b61176a836115dc565b91506020830135801515811461177f57600080fd5b809150509250929050565b600080600080608085870312156117a057600080fd5b6117a9856115dc565b93506117b7602086016115dc565b925060408501359150606085013567ffffffffffffffff8111156117da57600080fd5b8501601f810187136117eb57600080fd5b6117fa8782356020840161168f565b91505092959194509250565b634e487b7160e01b600052602160045260246000fd5b602081016004831061183e57634e487b7160e01b600052602160045260246000fd5b91905290565b6000806040838503121561185757600080fd5b611860836115dc565b915061186e602084016115dc565b90509250929050565b600181811c9082168061188b57607f821691505b6020821081036118ab57634e487b7160e01b600052602260045260246000fd5b50919050565b634e487b7160e01b600052601160045260246000fd5b80820180821115610570576105706118b1565b8082028115828204841417610570576105706118b1565b601f82111561095857600081815260208120601f850160051c810160208610156119185750805b601f850160051c820191505b81811015610aee57828155600101611924565b815167ffffffffffffffff81111561195157611951611679565b6119658161195f8454611877565b846118f1565b602080601f83116001811461199a57600084156119825750858301515b600019600386901b1c1916600185901b178555610aee565b600085815260208120601f198616915b828110156119c9578886015182559484019460019091019084016119aa565b50858210156119e75787850151600019600388901b60f8161c191681555b5050505050600190811b01905550565b60008351611a09818460208801611560565b835190830190611a1d818360208801611560565b64173539b7b760d91b9101908152600501949350505050565b6001600160a01b0385811682528416602082015260408101839052608060608201819052600090611a6990830184611584565b9695505050505050565b600060208284031215611a8557600080fd5b8151610ea48161152d56fea2646970667358221220266c4ace20445dce8acfcb40bbe3889c116c2a321a7741460ecdfb57c20aa5a364736f6c63430008110033",
  "linkReferences": {},
  "deployedLinkReferences": {}
}